:100000000C9464000C948C000C948C000C948C0068
:100010000C948C000C948C000C948C000C948C0030
:100020000C948C000C948C000C948C000C948C0020
:100030000C948C000C948C000C948C000C948C0010
:100040000C941E050C948C000C94ED080C94300953
:100050000C948C000C948C000C948C000C948C00F0
:100060000C94920B0C948C0000000007000201001D
:100070000003040600000000000000000102040864
:100080001020408001020408102001020408102002
:10009000040404040404040402020202020203032E
:1000A00003030303000000002300260029000000D2
:1000B0000000250028002B0000000000240027007D
:1000C0002A008103F309F50A11241FBECFEFD8E0FF
:1000D000DEBFCDBF11E0A0E0B1E0ECEAFCE102C080
:1000E00005900D92A038B107D9F723E0A0E8B1E060
:1000F00001C01D92A438B207E1F710E0C4E6D0E0D9
:1001000004C02197FE010E943F0EC136D107C9F7F6
:100110000E9446080C94BF0C0C940000FC017387ED
:1001200062870895FC01862F6083718360E00C94E0
:10013000C706CF93DF93EC01862F20E432E44FE033
:1001400050E061E00E94EE056A837B838C839D838F
:1001500023E930E040E050E00E94150E2E833F83FB
:1001600048875987CA01B9010E94FA0C2CE53FE87B
:1001700042E250E40E94860D0E94C20C6A877B878F
:100180008C879D87DF91CF910895FC0166817781EF
:10019000808591850895DC01ED91FC910190F081BD
:1001A000E02D099440E855E260E070E08AE192E0D9
:1001B0000E946B0984EC92E00E94C90A10928101AE
:1001C000109280016EE070E084E092E00E948E0068
:1001D00060E170E088EF91E00E948E006FE070E0D7
:1001E0008CEE91E00E948E0062E170E080EE91E082
:1001F0000E948E0063E170E084ED91E00E948E0029
:100200006EE070E088EC91E00E948E0062E070E0A9
:100210008AEB91E00E94920063E070E08CEA91E04A
:100220000C9492008230910581F10CF479C003970F
:1002300009F076C065E070E084EC92E00E94DD0A8F
:1002400062E470E084EC92E00E94CB0084EC92E0E7
:100250000E94F20A64E873E080E090E00E948D055D
:1002600065E070E084EC92E00E94DD0A63E570E0F6
:1002700084EC92E00E94CB0084EC92E00E94F20AAF
:1002800068EB7BE080E090E0CDC065E070E084EC5E
:1002900092E00E94DD0A6CE470E084EC92E00E943F
:1002A000CB0084EC92E00E94F20A64E873E080E004
:1002B00090E00E948D0565E070E084EC92E00E9481
:1002C000DD0A63E570E084EC92E00E94CB0084ECF0
:1002D00092E00E94F20A64E873E080E090E00E94FD
:1002E0008D0565E070E084EC92E00E94DD0A67E431
:1002F00070E084EC92E00E94CB0084EC92E00E94DB
:10030000F20A64E873E080E090E00E948D0565E009
:1003100070E084EC92E00E94DD0A62E570E04AC081
:1003200065E070E084EC92E00E94DD0A62E570E036
:1003300084EC92E00E94CB0084EC92E00E94F20AEE
:1003400064E873E080E090E00E948D0565E070E075
:1003500084EC92E00E94DD0A63E570E084EC92E0B8
:100360000E94CB0084EC92E00E94F20A64E873E001
:1003700080E090E00E948D0565E070E084EC92E002
:100380000E94DD0A67E470E084EC92E00E94CB00FA
:1003900084EC92E00E94F20A64E873E080E090E06E
:1003A0000E948D0565E070E084EC92E00E94DD0A19
:1003B0006CE470E084EC92E00E94CB0084EC92E06C
:1003C0000E94F20A64E873E080E090E00E948D05EC
:1003D00065E070E084EC92E00E94DD0A67E470E082
:1003E00084EC92E00E94CB0084EC92E00E94F20A3E
:1003F00060ED77E080E090E00E948D0565E070E0C0
:1004000084EC92E00E94DD0A63E570E084EC92E007
:100410000E94CB0084EC92E00E94F20A60ED77E04B
:1004200080E090E00C948D054091A2015091A301D1
:100430002091A0013091A1016091980170919901E2
:100440008091960190919701241735071CF4681745
:100450007907A9F08617970744F44217530789F0E4
:100460002417350784F483E00FC06817790759F41F
:1004700081E090E04217530741F080E0089581E069
:1004800003C082E001C080E090E008958EE00E9409
:10049000810690939F0180939E018FE00E948106C8
:1004A0009093A9018093A80180E10E948106909316
:1004B00095018093940181E10E94810690938B01C4
:1004C00080938A0108958F929F92AF92BF92CF92AC
:1004D000DF92EF92FF920F931F938091A201909170
:1004E000A3019093A1018093A00160919E0170915E
:1004F0009F01AB01770F660B770B8091A401909160
:10050000A501A091A601B091A7018A019B01080F46
:10051000191F2A1F3B1FC901B8010093A4011093A2
:10052000A5012093A6013093A701C0900001D090AF
:1005300001010D2C000CEE08FF08A70196010E9496
:10054000150E3093A3012093A20180919801909100
:10055000990190939701809396016091A801709101
:10056000A901AB01770F660B770B80919A019091EF
:100570009B01A0919C01B0919D018A019B01080FF4
:10058000191F2A1F3B1FC901B80100939A0110933C
:100590009B0120939C0130939D01A70196010E942D
:1005A000150E309399012093980180918E019091BE
:1005B0008F0190938D0180938C01609194017091D3
:1005C00095014B01770FAA08BB088091900190918B
:1005D0009101A0919201B0919301BC01CD01680DF0
:1005E000791D8A1D9B1D60939001709391018093EA
:1005F000920190939301A70196010E94150E3093EA
:100600008F0120938E0180918401909185019093B8
:100610008301809382018091860190918701A0914E
:100620008801B0918901BC01CD01680D791D8A1D39
:100630009B1D60938601709387018093880190933E
:100640008901A70196010E94150E30938501209320
:1006500084011F910F91FF90EF90DF90CF90BF909A
:10066000AF909F908F9008956AEF70E080E090E0E7
:100670000E948D0581E090E090930101809300013C
:100680001092A4011092A5011092A6011092A70148
:100690008091A2019091A3019093A1018093A00168
:1006A00010929A0110929B0110929C0110929D0150
:1006B0008091980190919901909397018093960170
:1006C0001092900110929101109292011092930158
:1006D00080918E0190918F0190938D0180938C0178
:1006E0001092860110928701109288011092890160
:1006F0008091840190918501909383018093820180
:1007000008952CE0E4E0F2E0DF01322F1D923A95EB
:10071000E9F781E090E095838483E8EFF1E0DF0181
:10072000322F1D923A95E9F795838483ECEEF1E040
:10073000DF01322F1D923A95E9F795838483E0EE2D
:10074000F1E0DF01322F1D923A95E9F7958384831A
:10075000E4EDF1E0DF01322F1D923A95E9F7958340
:100760008483E8ECF1E0DF011D922A95E9F7958397
:1007700084830895CF92DF92EF92FF92CF93DF931D
:1007800069E070E08AEB91E00E94990068E070E017
:100790008CEA91E00E9499008AEB91E00E94C500EA
:1007A0006B017C014AE050E08AE192E00E943F0840
:1007B0002CE0C21AD10883E0C816D10440F463E0EB
:1007C00071E08AE192E00E947007C0E007C06AE031
:1007D00071E08AE192E00E947007C1E068EC70E08D
:1007E00080E090E00E948D050E9446020E94630214
:1007F000D7E48AE192E00E945308892B09F079C07E
:10080000C11177C0809100019091010101969093F0
:10081000010180930001853F914014F00E94340350
:1008200064E171E08AE192E00E9470076091A201A8
:100830007091A3014AE050E08AE192E00E943F08F3
:100840006FE271E08AE192E00E9470076091A0017E
:100850007091A1014AE050E08AE192E00E943F08D5
:100860006DE371E08AE192E00E9470076091980167
:10087000709199014AE050E08AE192E00E943F08BD
:100880006FE271E08AE192E00E9470076091960148
:10089000709197014AE050E08AE192E00E943F089F
:1008A00069E170E080E090E00E948D058091800118
:1008B00090918101853F914064F069E571E08AE1A2
:1008C00092E00E948D0781E090E0909381018093F7
:1008D0008001809180019091810101969093810126
:1008E00080938001DF91CF91FF90EF90DF90CF90C8
:1008F00008958AE192E00E947F08D0931002CC23F1
:10090000C1F065E070E084EC92E00E94DD0A63E5EE
:1009100070E084EC92E00E94CB0084EC92E00E94B4
:10092000F20A0E9414029093AB018093AA010E94E4
:10093000120180911002873481F465E070E084EC4C
:1009400092E00E94DD0A67E470E084EC92E00E948D
:10095000CB0084EC92E00E94F20A80911002833571
:1009600081F465E070E084EC92E00E94DD0A63E5CA
:1009700070E084EC92E00E94CB0084EC92E00E9454
:10098000F20A80911002823481F465E070E084EC18
:1009900092E00E94DD0A62E470E084EC92E00E9442
:1009A000CB0084EC92E00E94F20A80911002823522
:1009B00081F465E070E084EC92E00E94DD0A62E57B
:1009C00070E084EC92E00E94CB0084EC92E00E9404
:1009D000F20A809110028C3481F465E070E084ECBE
:1009E00092E00E94DD0A6CE470E084EC92E00E94E8
:1009F000CB0084EC92E00E94F20A809110028836CB
:100A000049F469E070E084EC92E00E94DD0A68E459
:100A100070E00AC08C3681F469E070E084EC92E00A
:100A20000E94DD0A6CE470E084EC92E00E94CB004E
:100A300084EC92E00E94F20AC0E0DBCE1F920F929B
:100A40000FB60F9211242F933F938F939F93AF93E1
:100A5000BF938091120290911302A0911402B09161
:100A600015023091110223E0230F2D3720F4019657
:100A7000A11DB11D05C026E8230F0296A11DB11DC1
:100A8000209311028093120290931302A0931402F8
:100A9000B09315028091160290911702A09118024E
:100AA000B09119020196A11DB11D80931602909379
:100AB0001702A0931802B0931902BF91AF919F91B2
:100AC0008F913F912F910F900FBE0F901F9018950F
:100AD0003FB7F8948091160290911702A0911802E6
:100AE000B091190226B5A89B05C02F3F19F00196B9
:100AF000A11DB11D3FBFBA2FA92F982F8827820FA4
:100B0000911DA11DB11DBC01CD0142E0660F771FF3
:100B1000881F991F4A95D1F70895CF92DF92EF92DF
:100B2000FF92CF93DF936B017C010E946805EB017C
:100B3000C114D104E104F10479F00E9468056C1B32
:100B40007D0B683E7340A0F381E0C81AD108E1082C
:100B5000F108C851DC4FECCFDF91CF91FF90EF90BF
:100B6000DF90CF900895789484B5826084BD84B579
:100B7000816084BD85B5826085BD85B5816085BD98
:100B8000EEE6F0E0808181608083E1E8F0E01082B1
:100B9000808182608083808181608083E0E8F0E0F2
:100BA000808181608083E1EBF0E0808184608083DC
:100BB000E0EBF0E0808181608083EAE7F0E0808113
:100BC0008460808380818260808380818160808373
:100BD0008081806880831092C10008958F929F92D7
:100BE000AF92BF92CF92DF92EF92FF920F931F933B
:100BF000CF93DF9390E0FC01E458FF4FA491FC01F8
:100C0000E057FF4F8491662311F0BA2F01C0B0E086
:100C100089019A013F7090E0880F991F8C559F4F72
:100C2000480159014FEF841A940AA40AB40AC12C4E
:100C3000D12C7601FC01C591D49168816A236B1394
:100C40001AC05FEFC51AD50AE50AF50AC814D90417
:100C5000EA04FB0479F745C0460157016FEF861A95
:100C6000960AA60AB60AC016D106E206F30609F4E9
:100C700038C075016401FC01C591D49168816A2373
:100C80006B13EACFB901A8014C195D096E097F0900
:100C90006A017B0120E030E0A901FC01C591D491FB
:100CA00068816A236B130AC02C153D054E055F054C
:100CB000C1F02F5F3F4F4F4F5F4FEFCFA5E1B0E047
:100CC0000E94340EDC01CB014096A11DB11DBC0178
:100CD000CD0124E096958795779567952A95D1F76C
:100CE00003C060E070E0CB01DF91CF911F910F91C5
:100CF000FF90EF90DF90CF90BF90AF909F908F903C
:100D000008958E3008F08E5087702091020190E493
:100D1000299F90011124822B80937C0080917A007E
:100D2000806480937A0080917A0086FDFCCF809168
:100D300078002091790090E0922B0895833081F023
:100D400028F4813099F08230A1F008958630A9F01E
:100D50008730B9F08430D1F4809180008F7D03C05A
:100D6000809180008F7780938000089584B58F777D
:100D700002C084B58F7D84BD08958091B0008F77C7
:100D800003C08091B0008F7D8093B0000895CF9311
:100D9000DF9390E0FC01E458FF4F2491FC01E05701
:100DA000FF4F8491882361F190E0880F991FFC0127
:100DB000E854FF4FC591D491FC01E255FF4FA59136
:100DC000B491611109C09FB7F8948881209582235E
:100DD0008883EC912E230BC0623061F49FB7F894A6
:100DE0003881822F809583238883EC912E2B2C933E
:100DF0009FBF06C08FB7F894E8812E2B28838FBF42
:100E0000DF91CF9108951F93CF93DF93282F30E088
:100E1000F901E859FF4F8491F901E458FF4FD4914B
:100E2000F901E057FF4FC491CC23C9F0162F81116F
:100E30000E949E06EC2FF0E0EE0FFF1FE255FF4FE1
:100E4000A591B4918FB7F894111105C09C91ED2F25
:100E5000E095E92302C0EC91ED2BEC938FBFDF917D
:100E6000CF911F910895CF92DF92EF92FF920F934F
:100E70001F93CF93DF936C01EB017B01E40EF51E12
:100E800000E010E0CE15DF0561F06991D601ED912B
:100E9000FC910190F081E02DC6010995080F191F02
:100EA000F1CFC801DF91CF911F910F91FF90EF908B
:100EB000DF90CF9008956115710579F0FB010190E5
:100EC0000020E9F73197AF01461B570BDC01ED918C
:100ED000FC910280F381E02D099480E090E0089578
:100EE0000C945B07DC01ED91FC910190F081E02D09
:100EF00009940F931F93CF93DF93EC016DE00E9451
:100F000072078C016AE0CE010E947207800F911F68
:100F1000DF91CF911F910F9108950F931F93CF935E
:100F2000DF93EC010E945B078C01CE010E947907E0
:100F3000800F911FDF91CF911F910F9108958F9294
:100F40009F92AF92BF92CF92DF92EF92FF920F9358
:100F50001F93CF93DF93CDB7DEB7A1970FB6F89469
:100F6000DEBF0FBECDBF6C01142FE52FCB01022FCA
:100F700019A2223008F40AE07E0121E2E20EF11CFF
:100F8000802E912CA12CB12C612F7E2FA5019401D4
:100F90000E94F30D029F1019112481E0E81AF10854
:100FA0001A3014F4105D01C0195CF7011083122F80
:100FB000E32FCA01232B242B252B31F7B701C601C0
:100FC0000E945B07A1960FB6F894DEBF0FBECDBF9F
:100FD000DF91CF911F910F91FF90EF90DF90CF9015
:100FE000BF90AF909F908F900895CF92DF92EF9235
:100FF000FF920F931F93CF93DF93EC016A017B0164
:101000002115310579F4E881F9810190F081E02D15
:10101000642FDF91CF911F910F91FF90EF90DF90A0
:10102000CF9009942A303105E9F477FF1AC06DE2B8
:101030000E9472078C0144275527BA014C195D099B
:101040006E097F092AE0CE010E949F07800F911F41
:10105000DF91CF911F910F91FF90EF90DF90CF9094
:1010600008952AE0B701A601CE01DF91CF911F912B
:101070000F91FF90EF90DF90CF900C949F079A0113
:10108000AB01770F660B770B0C94F5070E94B30545
:101090000E94D200C7E2D9E00E94BA032097E1F390
:1010A0000E942709F9CFFC0124853585F901E05C10
:1010B000FF4F80819181329620813181821B930B79
:1010C0008F7399270895DC011C96ED91FC911D9773
:1010D000DF01A05CBF4F2D913C91119712968D912D
:1010E0009C9111972817390739F08D919C91E80F41
:1010F000F91F808190E008958FEF9FEF0895FC0124
:10110000A485B585FD01E05CFF4F208131813296D9
:10111000808191812817390779F080819181A80F0A
:10112000B91F8C91208131812F5F3F4F2F7333275F
:101130003183208390E008958FEF9FEF0895FC01A5
:1011400081A1882329F0A489B5898C9186FFFBCFE2
:1011500011A208950F931F93CF93DF93FC01A685EF
:10116000B7858D01005C1F4FE80188819981019648
:101170008F739927AD014E5B5F4FEA01288139815A
:1011800082179307D1F3E80128813981A20FB31F99
:101190006C93A685B785A05CBF4F11969C938E93E8
:1011A000A689B7892C9181E090E0078C02C0880F56
:1011B000991F0A94E2F7822B8C9381E081A3048823
:1011C000F589E02D80818064808381E090E0DF916B
:1011D000CF911F910F91089508951F920F920FB60E
:1011E0000F9211242F934F935F938F939F93EF93BD
:1011F000FF938091C00082FD1CC02091C6008091A9
:10120000C0029091C10201968F7399274091C2024A
:101210005091C3028417950771F0E091C002F091DC
:10122000C102E058FD4F20839093C1028093C00219
:1012300002C08091C600FF91EF919F918F915F91C5
:101240004F912F910F900FBE0F901F9018958AE12C
:1012500092E00E945308892B11F00C94EC08089539
:101260001F920F920FB60F9211242F933F938F93DB
:101270009F93EF93FF9320917C0230917D028091A8
:101280007E0290917F022817390731F48091C100C6
:101290008F7D8093C10014C0E0917E02F0917F02A7
:1012A000E45CFD4F208180917E0290917F02019647
:1012B0008F73992790937F0280937E022093C600BC
:1012C000FF91EF919F918F913F912F910F900FBEC2
:1012D0000F901F901895CF92DF92EF92FF920F938D
:1012E0001F93CF93DF93EC016A017B014115514EAF
:1012F0006105710509F1EC89FD8981E090E008A0A4
:1013000002C0880F991F0A94E2F7808360E079E0B9
:101310008DE390E0A70196010E94F30D89019A01E7
:10132000015011092109310936952795179507951F
:10133000980101151041A8F0EC89FD89108260E840
:1013400074E88EE190E0A70196010E94F30DDA01A6
:10135000C9010197A109B109B695A79597958795F8
:101360009C01E889F9893083EA89FB89208319A2E5
:10137000EE89FF89408181E090E09C010C8C02C0E5
:10138000220F331F0A94E2F7242B2083EE89FF8972
:1013900040819C010D8C02C0220F331F0A94E2F79A
:1013A000242B2083EE89FF8940819C010E8C02C092
:1013B000220F331F0A94E2F7242B2083EE89FF8942
:1013C00020810F8C02C0880F991F0A94E2F7809544
:1013D00082238083DF91CF911F910F91FF90EF9037
:1013E000DF90CF900895EAE1F2E01382128288EE56
:1013F00093E0A0E0B0E084839583A683B78383E67F
:1014000091E09183808380E892E0958784878CE3E4
:1014100092E09787868785EC90E0918B808B84ECB7
:1014200090E0938B828B80EC90E0958B848B81ECA9
:1014300090E0978B868B82EC90E0918F808F86EC8A
:1014400090E0938F828F84E0848F83E0858F87E0A4
:10145000868F85E0878F81E080A308958091F402D4
:1014600090E02091F502821B910908959091F50278
:101470008091F402981750F4E92FF0E0EA50FD4F04
:10148000208130E09F5F9093F50202C02FEF3FEF85
:10149000C9010895E091F5028091F402E81730F453
:1014A000F0E0EA50FD4F808190E008958FEF9FEFCC
:1014B00008950895CF92DF92EF92FF920F931F93BA
:1014C000CF93DF937C01262F972F8A018091D00242
:1014D000882391F0C62FD72F6E01C40ED51ECC15D0
:1014E000DD0571F06991D701ED91FC910190F081DA
:1014F000E02DC7010995F3CF642F822F0E94690B5D
:10150000C801DF91CF911F910F91FF90EF90DF9075
:10151000CF900895CF93DF931F92CDB7DEB7698345
:101520002091D0022223D1F02091D102203240F02C
:1015300021E030E0FC013383228380E090E015C09D
:101540008091D202E82FF0E0ED52FD4F9981908317
:101550008F5F8093D2028093D10205C061E0CE01FB
:1015600001960E94690B81E090E00F90DF91CF918E
:101570000895FC011382128288EE93E0A0E0B0E0AF
:1015800084839583A683B78383E791E091838083E7
:1015900008951092F5021092F4021092D202109265
:1015A000D1020C94F90A81E08093D0026093F30297
:1015B0001092D2021092D10208950C94D30A0F9384
:1015C000062F21E04091D10263ED72E08091F30299
:1015D0000E94170B1092D2021092D1021092D002E8
:1015E0000F91089561E00C94DF0A84EC92E00C9472
:1015F000B90A1092830381E08093810310928003E3
:1016000061E082E10E94030761E083E10E94030739
:10161000E9EBF0E080818E7F808380818D7F808305
:1016200088E48093B80085E48093BC0008950F930C
:10163000413208F046C0909183039111FCCF32E013
:1016400030938303009381033FEF3093160310928E
:101650005B0340935A03FB016CE573E0DB013A2F17
:10166000361B341718F431913D93F9CF1092820351
:1016700030918203880F832B8093820380918003B3
:10168000813041F410928003809182038093BB00EB
:1016900085EC01C085EE8093BC00222321F080916F
:1016A00083038230D1F3809116038F3F79F08091CC
:1016B0001603803241F080911603803331F094E0BC
:1016C00005C091E003C092E001C093E0892F0F9123
:1016D0000895613298F420918303243089F4609353
:1016E0003803FC012AE333E0D9018A2F821B8617D5
:1016F00018F481918D93F9CF80E0089581E00895E9
:1017000082E0089585ED8093BC008091BC0084FD4B
:10171000FCCF10928303089585EC8093BC00109257
:10172000830308951F920F920FB60F9211242F93E7
:101730003F934F935F936F937F938F939F93AF9359
:10174000BF93EF93FF938091B900887F803609F4AF
:101750009CC068F5883209F45BC090F4803109F4CC
:1017600054C038F4882309F4F5C0883009F44DC01A
:10177000F5C0883109F44CC0803209F45DC0EEC078
:10178000803409F468C048F4803309F455C08833C4
:1017900009F0E4C080931603A8C0803509F44FC057
:1017A000883509F45DC0883409F0D8C0D5C08839BF
:1017B00009F4C6C0A8F4883709F467C038F488363D
:1017C00009F463C0803709F460C0C8C0883809F4E0
:1017D000B7C0803909F45FC0803809F0BFC05BC072
:1017E000803B09F485C038F4803A09F466C0883A31
:1017F00009F47EC0B3C0803C09F4A6C0883C09F45B
:10180000A3C0883B09F489C0A9C08091820310C09D
:1018100090915B0380915A03981770F5E0915B03F8
:1018200081E08E0F80935B03F0E0E45AFC4F8081EF
:101830008093BB0085EC85C0809316038DC0E0913A
:101840005B0381E08E0F80935B038091BB00F0E02F
:10185000E45AFC4F808390915B0380915A036DC0E2
:10186000E0915B0381E08E0F80935B038091BB006E
:10187000F0E0E45AFC4F80838091810381116CC0B9
:1018800081E08093800384EA60C083E080938303D7
:1018900010921703CFCF80911703803208F050C009
:1018A000E091170381E08E0F809317038091BB00B6
:1018B000F0E0E85EFC4F8083BDCF8091170380325B
:1018C00030F4E0911703F0E0E85EFC4F10820E94D4
:1018D000820B6091170370E0E0917C03F0917D032F
:1018E00088E193E00995109217030E948C0B36C093
:1018F00084E0809383031092390310923803E091BF
:101900007E03F0917F03099580913803811105C012
:1019100081E08093380310923A03E091390381E02B
:101920008E0F80933903F0E0E65CFC4F808180935A
:10193000BB009091390380913803981708F47ACF4F
:1019400085E88093BC000AC085EC8093BC001092AF
:10195000830304C0109216030E94820BFF91EF9143
:10196000BF91AF919F918F917F916F915F914F91B7
:101970003F912F910F900FBE0F901F901895F894E4
:101980000C94540E0E94C90C6894B1110C94800DF3
:1019900008950E94650D88F09F5798F0B92F9927F8
:1019A000B751B0F0E1F0660F771F881F991F1AF04A
:1019B000BA95C9F714C0B13091F00E947F0DB1E023
:1019C00008950C947F0D672F782F8827B85F39F022
:1019D000B93FCCF3869577956795B395D9F73EF4E3
:1019E00090958095709561957F4F8F4F9F4F08958B
:1019F000E89409C097FB3EF49095809570956195A9
:101A00007F4F8F4F9F4F9923A9F0F92F96E9BB275E
:101A10009395F695879577956795B795F111F8CFDA
:101A2000FAF4BB0F11F460FF1BC06F5F7F4F8F4F45
:101A30009F4F16C0882311F096E911C0772321F03B
:101A40009EE8872F762F05C0662371F096E8862FD3
:101A500070E060E02AF09A95660F771F881FDAF72A
:101A6000880F9695879597F9089597F99F6780E86D
:101A700070E060E008959FEF80EC089500240A94E0
:101A80001616170618060906089500240A94121659
:101A90001306140605060895092E0394000C11F48C
:101AA000882352F0BB0F40F4BF2B11F460FF04C039
:101AB0006F5F7F4F8F4F9F4F089557FD9058440F92
:101AC000551F59F05F3F71F04795880F97FB991F9D
:101AD00061F09F3F79F0879508951216130614065A
:101AE000551FF2CF4695F1DF08C0161617061806E7
:101AF000991FF1CF86957105610508940895E894C2
:101B0000BB2766277727CB0197F908950E94990D87
:101B10000C944C0D0E943E0D38F00E94450D20F0B3
:101B2000952311F00C94350D0C943B0D11240C945D
:101B3000800D0E945D0D70F3959FC1F3950F50E0ED
:101B4000551F629FF001729FBB27F00DB11D639F6F
:101B5000AA27F00DB11DAA1F649F6627B00DA11D15
:101B6000661F829F2227B00DA11D621F739FB00DBB
:101B7000A11D621F839FA00D611D221F749F33272B
:101B8000A00D611D231F849F600D211D822F762FC4
:101B90006A2F11249F5750409AF0F1F088234AF0A1
:101BA000EE0FFF1FBB1F661F771F881F915050400D
:101BB000A9F79E3F510580F00C94350D0C94800DD3
:101BC0005F3FE4F3983ED4F3869577956795B79594
:101BD000F795E7959F5FC1F7FE2B880F911D9695AE
:101BE000879597F90895A1E21A2EAA1BBB1BFD0148
:101BF0000DC0AA1FBB1FEE1FFF1FA217B307E407EC
:101C0000F50720F0A21BB30BE40BF50B661F771F43
:101C1000881F991F1A9469F7609570958095909523
:101C20009B01AC01BD01CF010895052E97FB1EF469
:101C300000940E942C0E57FD07D00E94F30D07FC64
:101C400003D04EF40C942C0E509540953095219570
:101C50003F4F4F4F5F4F08959095809570956195D8
:101C60007F4F8F4F9F4F08950E94450EA59F900D67
:101C7000B49F900DA49F800D911D11240895EE0F27
:101C8000FF1F0590F491E02D0994A29FB001B39F2E
:101C9000C001A39F700D811D1124911DB29F700D75
:0C1CA000811D1124911D0895F894FFCFC0
:101CAC000100010A476F696E67000A73746F7070E8
:101CBC00696E67000A46726F6E74206C65667420DC
:101CCC0073656E736F72204D65616E203D20002030
:101CDC004C617374204D65616E203D20000A467284
:101CEC006F6E742072696768742073656E736F729F
:101CFC00204D65616E203D20005245534554000037
:101D0C00000000AA08330753087F0863089F0800E7
:101D1C000000008A0A5A0A2E0A360A4A0A590A0090
:0400000500800180F6
:00000001FF
